:020000040800F2
:1000000060480020052A00080D2A00080F2A000871
:10001000112A0008132A0008152A00080000000011
:10002000000000000000000000000000172A000887
:10003000192A0008000000001B2A0008013D0008E2
:100040001F2A00081F2A00081F2A00081F2A00086C
:100050001F2A00081F2A00081F2A00081F2A00085C
:100060001F2A00081F2A00081F2A00081F2A00084C
:100070001F2A00081F2A0008532C00081F2A000806
:100080001F2A0008652C00081F2A00081F2A0008E4
:100090001F2A00081F2A00081F2A00081F2A00081C
:1000A0001F2A0008A33D00081F2A00081F2A000875
:1000B0006D3D00087F3D0008913D00081F2A0008A3
:1000C0001F2A00081F2A00081F2A00081F2A0008EC
:1000D0001F2A00081F2A00081F2A00081F2A0008DC
:1000E0001F2A00081F2A00081F2A000800F002F833
:1000F00000F03AF80AA090E8000C82448344AAF188
:100100000107DA4501D100F02FF8AFF2090EBAE885
:100110000F0013F0010F18BFFB1A43F0010318473B
:10012000404B0000604B0000103A24BF78C878C1F3
:10013000FAD8520724BF30C830C144BF04680C60ED
:10014000704700000023002400250026103A28BF35
:1001500078C1FBD8520728BF30C148BF0B60704739
:100160001FB51FBD10B510BD03F0ECFE1146FFF723
:10017000F7FF00F009F803F00AFF03B4FFF7F2FFFE
:1001800003BC03F00DFF0000ADF5487D40F6642090
:100190001F490860486040F2A230886040F6642041
:1001A000C86001461A48016140F22441416145F6A8
:1001B000C0501749886101461548C1614FF4487124
:1001C000016249F640401249486201461048816286
:1001D000C16230200E49088602F037FC03F0EDF9C9
:1001E0004FF4E1320B4942A802F051FD0AA142A8A6
:1001F00002F0E4FE42A9684600F014F80849C1F88C
:1002000000D003E00648006800F0F7F8FAE70000C5
:10021000240100200038014052756E20310D0A0083
:100220000000002070B504460D46EE482060A56031
:10023000EDA1A06802F0C2FE00202071204670BD32
:10024000704770B504462046FFF7FAFF054603F0F5
:10025000D3FE70BD70B504460D462946A06802F075
:100260007BFE207B6840207370BD70B504460D4650
:10027000E4490D700978A06802F06EFE207BE14928
:10028000097848402073280ADE4908700978A06878
:1002900002F062FE207BDB49097848402073280C7D
:1002A000D84908700978A06802F056FE207BD5492D
:1002B000097848402073280ED24908700978A06850
:1002C00002F04AFE207BCF4909784840207370BD78
:1002D00001464A7B501C487301F10E00805C704758
:1002E00010B504462046FFF7F3FF03462046FFF70C
:1002F000EFFF03EB002083B2184610BD30B5054672
:100300002846FFF7EDFF04462846FFF7E9FF04EB18
:100310000044204630BD70B5044694F8FE007928AC
:1003200045D004DC6E285AD078285DD104E07A28C4
:1003300052D0842858D107E00020B349086000213A
:10034000204603F034FE4FE0002523E02046FFF76F
:10035000D5FFAE49AC4A126841F832002046FFF79B
:10036000CDFFAA49A84A126801EBC2014860A6481D
:100370000068401CA44908604FF0FF30A349A24A1E
:10038000126841F83200A04A126801EBC2014860CD
:10039000681C85B294F80101C11700EB5171B5EBEF
:1003A000E10FD3DB0021204603F001FE1CE0082111
:1003B000204603F0FCFD022003F065FC06463146B2
:1003C0002046FFF752FF032003F05DFC064631464E
:1003D0002046FFF74AFF07E003F02FF804E0002172
:1003E000204603F0E4FD00BF00BF00BF217B204694
:1003F000FFF730FF00BF70BD704770B5044671E075
:10040000A06802F097FD0546207968B9242D01D136
:10041000012000E0002020712079002861D12946C8
:100420002046FFF7E9FF5CE02079012806D14D2D39
:1004300001D1022000E00020207152E02079022842
:1004400006D13C2D01D1032000E00020207148E0BE
:100450002079032814D1F02D02DD0020207141E025
:1004600084F80151002084F8000120736073207B20
:100470006840207304202071012084F8FF0030E0E0
:100480002079042807D184F8FE50207B684020732F
:100490000520207125E02079052811D194F800016C
:1004A00094F8011188420BDA207B6840207394F89D
:1004B0000011481C84F8000104F10E00455410E0BE
:1004C000207905280DD194F8000194F80111884293
:1004D00007DB207BA84202D12046FFF71CFF00204B
:1004E000207100BFA06802F0E4FC002888D170BD34
:1004F00010B504462046FFF70EFF10BD10B50446A8
:100500002046FFF708FF10BD73B5044601AD15F88E
:10051000010B3F4908700978A06802F01DFD207B9F
:100520003B4909784840207315F8010B3849087099
:100530000978A06802F010FD207B35490978484011
:10054000207315F8010B324908700978A06802F091
:1005500003FD207B2E4909784840207315F8010BD4
:100560002B4908700978A06802F0F6FC207B284926
:100570000978484020737CBD70B504460D46EEB244
:100580003146A06802F0E8FC207B704020732E0A00
:100590003146A06802F0E0FC207B7040207370BD03
:1005A00008B501466A464B7B581C487301F10E00A2
:1005B000C05C10704B7B581C487301F10E00C05C8E
:1005C00050704B7B581C487301F10E00C05C90705A
:1005D0004B7B581C487301F10E00C05CD070009832
:1005E00008BD0000484C000847726F756E436F6E7F
:1005F00074726F6C53797374656D496E69742E2EC5
:100600002E0D00002D00002028000020B002002048
:100610002C00002031490143314A1160704770B508
:10062000002100230F22C47804B32D4C246804F465
:10063000E064C4F5E064210AC1F10403CA404478CF
:1006400004FA03F18478144021430901254C06780B
:10065000A155047804F01F050124AC4005786D1104
:10066000AD0005F1E025C5F8004109E0047804F08B
:100670001F050124AC401C4D0678761145F8264034
:1006800070BD1A4A0A400243154B1B1F1A6070477F
:1006900039B1134A121D12680243114B1B1D1A6017
:1006A00006E00F4A121D126882430D4B1B1D1A6093
:1006B0007047042808D14FF0E021096941F0040196
:1006C0004FF0E022116107E04FF0E021096921F0CD
:1006D00004014FF0E0221161704700000000FA05AC
:1006E0000CED00E000E400E080E100E080FFFF1F8F
:1006F00001684FF6FE721140016000210160416007
:100700008160C1608D49884208D18C4908394968A7
:1007100041F00F01894A083A51608AE08749143153
:10072000884208D185490839496841F0F001834A77
:10073000083A51607DE081492831884208D17F49DB
:100740000839496841F470617C4A083A516070E0A8
:100750007A493C31884208D178490839496841F4DE
:100760007041764A083A516063E0744950318842DA
:1007700008D172490839496841F470216F4A083A32
:10078000516056E06D496431884208D16B4908399F
:10079000496841F47001694A083A516049E0674983
:1007A0007831884208D165490839496841F070615B
:1007B000624A083A51603CE06149884206D1011F13
:1007C000096841F00F01021F116032E05C491431E9
:1007D000884208D15A49091F096841F0F001584A76
:1007E000121F116025E056492831884208D154492A
:1007F000091F096841F47061514A121F116018E025
:100800004F493C31884208D14D49091F096841F4DC
:1008100070414B4A121F11600BE049495031884228
:1008200007D14749091F096841F47021444A121F42
:100830001160704710B50022026847F6F0739A43C2
:100840000C6A8B6823430C6923434C6923438C69EE
:100850002343CC6923434C6A23438C6A23431A43C2
:100860000260CB6843600B6883604B68C36010BD57
:100870000021016041608160C1600161416181616D
:10088000C161016241628162704721B1026842F038
:100890000102026004E002684FF6FE731A40026033
:1008A00070471AB103680B43036002E003688B438F
:1008B00003607047416070470146486880B27047E6
:1008C00001460020002201F080531BB11C4B083B65
:1008D0001A6802E0194B083B1A6802EA01030BB1DF
:1008E000012000E00020704700F0805119B1144948
:1008F000091F086002E01149083948607047014645
:100900000020002201F080531BB10D4B083B1A68F8
:1009100002E00A4B083B1A6802EA01030BB101200E
:1009200000E00020704700F0805119B10449091F10
:10093000086002E001490839486070470800024039
:100940000804024001460020FE4A106800F038000A
:10095000084310607047FB49096821F00801F94A13
:10096000116011460968014311607047F549096833
:1009700021F01001F34A116011460968014311602A
:100980007047F148EF494860F04848607047EE48CA
:10099000EC494860ED4848607047EA48006940F01B
:1009A0008000E84908617047E648006940F080002F
:1009B000E449086170470420E249C96801F0010177
:1009C00009B101200EE0DF49C96801F0040109B155
:1009D000022007E0DB49C96801F0100109B10320DA
:1009E00000E00420704700B502460423FFF7E3FF50
:1009F000034603E0FFF7DFFF0346521E012B01D140
:100A0000002AF7D102B90523184600BD30B50446C7
:100A100004254FF43020FFF7E6FF0546042D17D1DB
:100A2000C848006940F00200C649086108464461B0
:100A3000006940F0400008614FF43020FFF7D3FF19
:100A40000546C048006941F6FD710840BD4908618E
:100A5000284630BD10B504244FF43020FFF7C3FF03
:100A60000446042C16D1B748006940F00400B5498B
:100A700008610846006940F0400008614FF43020EA
:100A8000FFF7B1FF0446AF48006941F6FB7108402B
:100A9000AC490861204610BD00B502460423FFF7AB
:100AA0008AFF034603E0FFF786FF0346521E012B31
:100AB00001D1002AF7D102B90523184600BD10B5AF
:100AC00004244FF43020FFF7E7FF0446042C16D12E
:100AD0009C48006940F004009A4908610846006992
:100AE00040F0400008614FF43020FFF7D5FF044686
:100AF0009448006941F6FB7108409249086120461C
:100B000010BD00208F49C96901F0020109B101201F
:100B100000E00020704730B5A5250424FFF7F1FF61
:100B200000B100254FF43020FFF75DFF0446042C90
:100B30003AD18548834988608448886008460069BE
:100B400040F0200008610846006940F0400008615C
:100B50004FF43020FFF747FF0446042C1BD179489F
:100B6000006941F6DF71084076490861084600696E
:100B700040F01000086176480580E002FFF733FF7F
:100B80000446052C10D06F48006941F6EF7108400B
:100B90006C49086108E0052C06D06A48006941F6F6
:100BA000EF71084067490861204630BD78B50646B8
:100BB0000C46042500200090E802FFF714FF0546CC
:100BC000042D24D15F48006940F001005D490861AF
:100BD0003480E802FFF707FF0546042D10D1B01C52
:100BE0000090200C00990880E802FFF7FCFE054603
:100BF0005448006941F6FE7108405249086106E018
:100C00005048006941F6FE7108404E490861284687
:100C100078BD70B504460D460426F002FFF7E3FEEA
:100C20000646042E11D14748006940F001004549AD
:100C300008612580F002FFF7D6FE064641480069AC
:100C400041F6FE7108403F490861304670BD70B5FD
:100C500005460E460424E002FFF7C5FE0446042CB8
:100C600017D1394837498860384888600846006994
:100C700040F0100008612E80E002FFF7B4FE044649
:100C8000052C06D02F48006941F6EF7108402D4928
:100C90000861204670BD2DE9F04304464FF6FF760B
:100CA0003746B046B1460425E443E6B2C4F307270D
:100CB000C4F307484FEA1469E802FFF794FE0546BB
:100CC000042D49D120481F49886020488860084683
:100CD000006940F010000861FF2E06D01C48083063
:100CE0000680E802FFF77FFE0546042D08D1FF2F9E
:100CF00006D017480A300780E802FFF774FE054661
:100D0000042D0AD1B8F1FF0F07D011480C30A0F81C
:100D10000080E802FFF767FE0546042D0AD1B9F10D
:100D2000FF0F07D00A480E30A0F80090E802FFF746
:100D30005AFE0546052D0FD00248006941F6EF71B5
:100D4000084007E00020024023016745AB89EFCD52
:100D500000F8FF1F664908612846BDE8F08330B5FA
:100D6000054604244FF43020FFF73DFE0446042CD2
:100D700041D160485E4988605F48886008460069E4
:100D800040F0200008610846006940F0400008611A
:100D90004FF43020FFF727FE0446042C22D154489C
:100DA000006941F6DF710840514908610846006951
:100DB00040F0100008611DB100205049088002E099
:100DC000A5204E4908804FF43020FFF70CFE044662
:100DD000052C10D04648006941F6EF71084044499F
:100DE000086108E0052C06D04148006941F6DF7132
:100DF00008403F490861204630BDF0B505460E4623
:100E0000174604243B483A4988603B488860E00222
:100E1000FFF7E9FD0446042C19D13548006940F07C
:100E200010003349086147F0F80030432843334944
:100E3000891C0880E002FFF7D6FD0446052C06D089
:100E40002B48006941F6EF710840294908612046A6
:100E5000F0BD2748C069800870472548006A704780
:100E600000202349096801F0200109B1012000E0B8
:100E70000020704729B11E4A126902431C4B1A61B7
:100E800004E01B4A12698243194B1A6170470146FC
:100E90000020012908D1164AD26902F001020AB1E4
:100EA000012008E0002006E0114AD2680A400AB199
:100EB000012000E0002070470D49C8607047042001
:100EC0000B49C96801F0010109B101200EE0084990
:100ED000C96801F0040109B1022007E00449C968AA
:100EE00001F0100109B1032000E004207047000068
:100EF0000020024023016745AB89EFCD00F8FF1FBA
:100F000010B50446CC48844208D10121042000F0E9
:100F10002DFB0021042000F029FB46E0C748844255
:100F200008D10121082000F021FB0021082000F059
:100F30001DFB3AE0C248844208D10121102000F094
:100F400015FB0021102000F011FB2EE0BD4884426B
:100F500008D10121202000F009FB0021202000F011
:100F600005FB22E0B848844208D10121402000F06E
:100F7000FDFA0021402000F0F9FA16E0B34884425F
:100F800008D10121802000F0F1FA0021802000F03A
:100F9000EDFA0AE0AE48844207D10121801500F045
:100FA000E5FA0021A01500F0E1FA10BD10B501210D
:100FB000084600F0DBFA0021012000F0D7FA10BD4E
:100FC0002DE9F041024600250026002000230024E0
:100FD000002791F803C00CF00F0591F803C00CF046
:100FE000100CBCF1000F03D091F802C04CEA0505CB
:100FF00091F800C0BCF1000F31D0146800202BE044
:101000004FF0010C0CFA00F3B1F800C00CEA030633
:101010009E4220D183004FF00F0C0CFA03F7BC4323
:1010200005FA03FC4CEA040491F803C0BCF1280F54
:1010300006D14FF0010C0CFA00FCC2F814C00AE013
:1010400091F803C0BCF1480F05D14FF0010C0CFA28
:1010500000FCC2F810C0401C0828D1D31460B1F8BD
:1010600000C0BCF1FF0F34DD546800202EE000F119
:10107000080C4FF0010808FA0CF3B1F800C00CEAB4
:1010800003069E4221D183004FF00F0C0CFA03F7A8
:10109000BC4305FA03FC4CEA040491F803C0BCF11C
:1010A000280F05D100F1080C08FA0CF8C2F81480DA
:1010B00091F803C0BCF1480F07D100F1080C4FF0C4
:1010C000010808FA0CF8C2F81080401C0828CED39A
:1010D0005460BDE8F0814FF6FF71018002218170FC
:1010E0000421C17070470246002093680B400BB189
:1010F000012000E0002070470146886880B27047F8
:1011000002460020D3680B400BB1012000E0002014
:1011100070470146C86880B27047016170474161FD
:1011200070470AB1016100E041617047C1607047DA
:101130004FF480320A4382618161826182698269EF
:10114000704702460020434B18684FF680731840E2
:1011500040EA021008433F4B186070473E49C8619F
:101160007047F0B50A46002300240021002500F056
:101170000046B6F1004F02D1364EF16901E0354E1E
:101180007168C0F3034583B200F44016B6F5401F02
:1011900008D121F070612F4E766826F070662D4FD1
:1011A0007E6012E000F48016B6F5801F06D103269B
:1011B00006FA05F4A14341F0706106E0460D3601E0
:1011C00003FA06F6B14341F0706122B1460D3601D3
:1011D00003FA06F6314300F00046B6F1004F02D1A3
:1011E0001C4EF16101E01B4E7160F0BD30B5002274
:1011F0008B071C0F0F2303FA04F2164B08338C10D5
:1012000053F824309343134C08348D1044F82530A0
:1012100023468C1053F824308C07240F00FA04F472
:1012200023430C4C08348D1044F8253030BD0A4956
:10123000DC3108607047000000080140000C0140EC
:10124000001001400014014000180140001C014042
:10125000002001400000014000002042DF480068FB
:1012600040F00100DD49086008464068DC4908405C
:10127000DA49486008460068DA490840D7490860FA
:101280000846006820F4802008600846406820F482
:10129000FE0048604FF41F0088607047CF4909681E
:1012A00021F48031CD4A11601146096821F4802172
:1012B0001160B0F5803F03D0B0F5802F0ED106E06D
:1012C000C649096841F48031C44A116007E0C34946
:1012D000096841F4A021C14A116000E000BF00BFCD
:1012E000704710B501460022002300204A11012A50
:1012F00002D1BA4C236806E0022A02D1B74C236A15
:1013000001E0B64C636A01F01F02012494401C40C6
:101310000CB1012000E0002010BD38B50020009085
:101320000024002500BF3120FFF7DBFF05460098B1
:10133000401C00900098B0F5A06F01D0002DF2D0B5
:101340003120FFF7CEFF08B1012400E00024204641
:1013500038BD01460020A14A106820F0F80040EA9C
:10136000C10010607047A049086070470246002025
:101370009A4B586820F47C1042EA01031843974BBB
:101380005860704798490866704701460020934AA4
:10139000506820F003000843506070478F48406851
:1013A00000F00C007047014600208C4A506820F085
:1013B000F00008435060704701460020874A50689B
:1013C00020F4E06008435060704701460020834AE3
:1013D000506820F4605040EAC1005060704729B165
:1013E0007E4A527A02437D4B5A7204E07B4A527A1B
:1013F00082437A4B5A7270477B49D83108607047F4
:1014000001460020754A506820F44040084350606F
:1014100070470021714A20321170704A82F8201002
:10142000012802D004280AD104E001216B4A2032AD
:10143000117005E00521694A2032117000E000BFFB
:1014400000BF70476949086070476449096A0143F1
:10145000624A11627047654944390860704730B587
:1014600000210022002400235C4D6D6805F00C0172
:1014700021B1042905D0082923D105E05C4D056080
:1014800022E05B4D05601FE0544D6D6805F470125D
:10149000524D6D6805F48034022505EB92421CB96B
:1014A000544D554305600BE04C4D6D6805F4003517
:1014B0001DB1504D5543056002E04D4D554305604B
:1014C00002E04B4D056000BF00BF444D6D6805F064
:1014D000F0010909484D6B5C0568DD4045603F4DF2
:1014E0006D6805F4E061090A434D6B5C4568DD40B9
:1014F00085603A4D6D6805F46051C90A3E4D6B5CDC
:101500004568DD40C560354D6D6805F44041890B87
:101510003A4D6B5CC568B5FBF3F5056130BD29B18B
:101520002E4A526902432D4B5A6104E02B4A5269FC
:1015300082432A4B5A61704729B1284A9269024373
:10154000264B9A6104E0254A92698243234B9A61B3
:10155000704729B1214AD2690243204BDA6104E085
:101560001E4AD26982431D4BDA61704729B11B4A7A
:10157000D2680243194BDA6004E0184AD268824309
:10158000164BDA60704729B1144A12690243134BB3
:101590001A6104E0114A12698243104B1A617047C4
:1015A00012494039086070470F49C86470470B49B9
:1015B000C87170470948406A40F080700749486226
:1015C000704701460020054A92680A400AB101208E
:1015D00000E0002070470149887270470010024007
:1015E0000000FFF8FFFFF6FE000042428004424286
:1015F00000127A0000093D002E0000203E0000206D
:1016000010B50446FE48844208D10121C014FFF7FA
:10161000ADFF0021E014FFF7A9FFC4E0B4F1804F53
:1016200008D101210846FFF7AEFF00210120FFF796
:10163000AAFFB8E0F348844208D101210220FFF755
:10164000A2FF00210220FFF79EFFACE0EE4884429B
:1016500008D101210420FFF796FF00210420FFF7A5
:1016600092FFA0E0E948844208D101210820FFF759
:101670008AFF00210820FFF786FF94E0E4488442B7
:1016800008D101211020FFF77EFF00211020FFF775
:101690007AFF88E0DF48844208D101212020FFF74B
:1016A00072FF00212020FFF76EFF7CE0DA488442C1
:1016B00008D101214014FFF759FF00216014FFF702
:1016C00055FF70E0D548844209D10121C804FFF7D5
:1016D0004DFF00214FF40020FFF748FF63E0D048A2
:1016E000844209D101210805FFF740FF00214FF492
:1016F0008010FFF73BFF56E0CA48844209D1012120
:101700004805FFF733FF00214FF40010FFF72EFFCD
:1017100049E0C548844208D101214020FFF733FF4A
:1017200000214020FFF72FFF3DE0C048844208D150
:1017300001218020FFF727FF00218020FFF723FFF2
:1017400031E0BB48844208D101218015FFF71BFF1F
:101750000021A015FFF717FF25E0B648844209D104
:1017600001210804FFF702FF00214FF48030FFF74A
:10177000FDFE18E0B048844209D101214804FFF77A
:10178000F5FE00214FF40030FFF7F0FE0BE0AB4810
:10179000844208D101218804FFF7E8FE00214FF4BC
:1017A0008020FFF7E3FE10BD00220288944B984290
:1017B0000ED0994B98420BD0B0F1804F08D0914B8E
:1017C000984205D0904B984202D0904B984204D159
:1017D0004FF68F731A404B881A438D4B984207D0AF
:1017E0008C4B984204D04FF6FF431A40CB881A43E3
:1017F00002808B8883850B880385814B98420BD0B0
:10180000854B984208D08B4B984205D08A4B984222
:1018100002D08A4B984201D10B7A0386012383823E
:10182000704770B5002400220023058C4FF6FE7629
:1018300035400584028C8388048B4FF68F752C40CD
:10184000B51E2C400D882C43751E2A400D892A4355
:101850004D882A436A4DA8420BD06F4DA84208D04C
:10186000744DA84205D0744DA84202D0734DA842D1
:1018700013D14FF6F7752A404D892A434FF6FB7571
:101880002A408D882A434FF6FF652B404FF6FF55BF
:101890002B408D892B43CD892B4383800483CD88B6
:1018A0008586028470BD70B5002400220023058C5B
:1018B0004FF6EF7635400584028C8388048B48F61A
:1018C000FF752C404FF6FF452C400D884FF6FF76F4
:1018D00006EA05252C434FF6DF752A400D8906EAF6
:1018E00005152A434D8806EA05152A43444DA842AA
:1018F00002D0494DA8421DD14FF67F752A404D892F
:101900004FF6FF7606EA05152A434FF6BF752A40C3
:101910008D8806EA05152A434FF6FF352B404FF216
:10192000FF752B408D8906EA85052B43CD8906EA94
:1019300085052B4383800483CD880587028470BD91
:1019400070B5002400220023058C4FF6FF66354059
:101950000584028C8388848B4FF68F752C404FF65C
:10196000FC752C400D882C434FF6FF552A400D89FD
:101970004FF6FF7606EA05252A434D8806EA052537
:101980002A431F4DA84202D0234DA8421DD14FF239
:10199000FF752A404D894FF6FF7606EA05252A4352
:1019A0004FF6FF352A408D8806EA05252A434EF674
:1019B000FF752B404DF6FF752B408D8906EA051506
:1019C0002B43CD8906EA05152B4383808483CD887C
:1019D0008587028470BD70B5002200230024058C29
:1019E0004EF6FF7635400584038C8488828B48F65A
:1019F000FF752A404FF6FF452A400D8820E0000081
:101A0000002C01400004004000080040000C004091
:101A1000001000400014004000340140004C014020
:101A2000005001400054014000180040001C0040DC
:101A300000200040004001400044014000480140B7
:101A40004FF6FF7606EA05252A434DF6FF752B4033
:101A50000D8906EA05352B434D8806EA05352B43EB
:101A6000FA4DA84202D0FA4DA84208D14BF6FF75B4
:101A70002C408D894FF6FF7606EA85152C4384802D
:101A80008283CD88A0F84050038470BD828B4FF2D2
:101A9000FF331A408283828B4FF6FF7303EA0123E0
:101AA0001A4382837047F0B50C4615460022002188
:101AB0000026078C4EF6FF7C07EA0C070784828B12
:101AC000018C4FF6FF7707EA043640F6FF473A40AD
:101AD0004FF6FF7707EA05273A434FF6FF7707EA05
:101AE00003373A43D94FB8420ED0D94FB8420BD042
:101AF000B0F1804F08D0D74FB84205D0D64FB8428A
:101B000002D0D64FB84206D14DF6FF77394046F4A1
:101B10008057394305E047F6FF57394044F4805772
:101B2000394382830184F0BD828B4FF6F3731A40F0
:101B30008283828B0A4382837047F0B50C46154638
:101B4000002200210026078C4FF6FF6C07EA0C07E5
:101B50000784828B018C4FF6FF7707EA04264FF645
:101B60000C773A404FF6FF7707EA03172F433A43C3
:101B7000B64FB8420ED0B64FB8420BD0B0F1804F3E
:101B800008D0B44FB84205D0B34FB84202D0B34FDB
:101B9000B84206D14FF6FF57394046F480773943B3
:101BA00005E04FF2FF57394044F480773943828390
:101BB0000184F0BD028B4FF2FF331A400283028B87
:101BC0004FF6FF7303EA01231A4302837047F0B50F
:101BD0000C461546002200210026078C4FF6EF7CAC
:101BE00007EA0C070784028B018C4FF6FF7707EAA0
:101BF000041640F6FF473A404FF6FF7707EA0337EF
:101C00003A434FF6FF7707EA05273A438F4FB8422A
:101C10000ED08F4FB8420BD0B0F1804F08D08D4F0F
:101C2000B84205D08C4FB84202D08C4FB84206D192
:101C30004FF6DF77394046F01007394305E04FF69D
:101C40005F77394044F01007394302830184F0BDC7
:101C5000028B4FF6F3731A400283028B0A4302830E
:101C60007047F0B50C46154600220021068C4FF651
:101C7000FE773E400684028B018C4FF60C76324094
:101C80007E1C06EA03162E433243704EB0420ED03D
:101C90006F4EB0420BD0B0F1804F08D06D4EB042C5
:101CA00005D06D4EB04202D06C4EB04206D14FF618
:101CB000FD76314044F00106314305E04FF6F576FC
:101CC000314044F00106314302830184F0BD70B518
:101CD00005460C465D4885420ED05D4885420BD0D6
:101CE000B5F1804F08D05B48854205D05A488542FF
:101CF00002D05A48854200D100E000BF208850B988
:101D00002389A28861882846FFF7ABFFE18828462F
:101D1000FFF79EFF25E0208804280AD12389A288A6
:101D200061882846FFF753FFE1882846FFF742FF06
:101D300017E0208808280AD12389A28861882846CC
:101D4000FFF7FBFEE1882846FFF7EEFE09E0238956
:101D5000A28861882846FFF7A6FEE1882846FFF79B
:101D600095FE70BD2DE9F04105460C460026012781
:101D7000608808B9022600E00026A088012801D169
:101D8000022700E001272088A0B92389A288618862
:101D90002846FFF766FFE1882846FFF759FF2389A9
:101DA0003A4631462846FFF712FFE1882846FFF7FA
:101DB00001FF13E02389A28861882846FFF707FF07
:101DC000E1882846FFF7F6FE23893A463146284641
:101DD000FFF747FFE1882846FFF73AFFBDE8F081AB
:101DE0000A884B881A438B881A43CB881A430B897D
:101DF0001A434B891A438B891A43A0F84420704731
:101E00004FF6FF71818000210180C1804180017205
:101E100070470021018041808180C1800181418122
:101E20008181C18170470021018041800121818031
:101E30000021C180018170470021018041808180A3
:101E4000C18001814181818170470000002C0140E7
:101E5000003401400004004000080040000C004035
:101E600021B1028842F00102028004E002884FF6AC
:101E7000FE731A400280704731B1B0F8442042F43A
:101E80000042A0F8442005E0B0F84420C2F30E025E
:101E9000A0F8442070471AB183890B43838102E084
:101EA00083898B43838170478182704741EA0203B3
:101EB000A0F8483070471AB183890B43838102E050
:101EC00083898B438381704701894FF6F8721140F3
:101ED000018170470A46002101894FF68F7319402E
:101EE00011430181704730B504460D46294620460E
:101EF000FFF7F0FF208940F00700208130BD2DE979
:101F0000F04104460D4616461F46602D06D13B465D
:101F1000012231462046FFF75AFE05E03B460122EA
:101F200031462046FFF79DFE29462046FFF7D2FFA7
:101F3000208940F007002081BDE8F08130B50C46D3
:101F400000210189C9B24FF6FF7505EA0325154343
:101F500025432943018130BD2DE9F04105460E4658
:101F600017469846002443463A4631462846FFF72E
:101F7000E5FF2C894FF6F870044044F007044FF653
:101F80008F70044044F070042C81BDE8F081F0B5FE
:101F900004460D4616461F463B4632462946204615
:101FA000FFF7CCFF208940F480402081F0BD0185FF
:101FB000828270470A46002101884FF68F731940CC
:101FC000114301807047F0B50C4615461E460021AE
:101FD000002200230189028B038C4FF6F8773940E9
:101FE00021434FF6FC473A4040F201173A434FF67F
:101FF000DD773B404FF6FF7707EA06172F433B4359
:10200000018102830384F0BD0A460021018B4FF653
:102010008F7319401143018370470A460021018BD9
:1020200048F6FF7319404FF6FF7303EA0223194382
:10203000018370470A460021818B4FF68F73194048
:102040001143818370470A460021818B48F6FF7354
:1020500019404FF6FF7303EA022319438183704747
:1020600021B1028842F08002028004E002884FF62B
:102070007F731A400280704721B1828842F00402C7
:10208000828004E082884FF6FB731A40828070479A
:1020900021B1828842F00802828004E082884FF6F3
:1020A000F7731A408280704721B1828842F00102A2
:1020B000828004E082884FF6FE731A408280704767
:1020C0000A460021018B4FF6F77319401143018333
:1020D00070470A460021018B4FF2FF7319404FF6FB
:1020E000FF7303EA02231943018370470A46002164
:1020F000818B4FF6F77319401143818370470A466D
:102100000021818B4FF2FF7319404FF6FF7303EAF2
:1021100002231943818370470A460021018B4FF641
:10212000FB7319401143018370470A460021018B5C
:102130004FF6FF3319404FF6FF7303EA02231943AA
:10214000018370470A460021818B4FF6FB731940CB
:102150001143818370470A460021818B4FF6FF337C
:1021600019404FF6FF7303EA022319438183704736
:102170000A460021018B4FF67F73194011430183FA
:1021800070470A460021018BC1F30E014FF6FF7321
:1021900003EA02231943018370470A460021818B19
:1021A0004FF67F7319401143818370470A4600211F
:1021B000818BC1F30E014FF6FF7303EA022319432B
:1021C000818370470A460021018C4FF6FD73194048
:1021D0001143018470470A460021018C4FF6F773C2
:1021E00019401143018470470A460021018C4FF6C3
:1021F000DF7319404FF6FF7303EA0213194301849A
:1022000070470A460021018C4FF67F7319404FF644
:10221000FF7303EA02131943018470470A46002141
:10222000018C4FF6FF5319404FF6FF7303EA022368
:102230001943018470470A460021018C4FF2FF7355
:1022400019404FF6FF7303EA0223194301847047D4
:102250000A460021018C4DF6FF7319404FF6FF73BB
:1022600003EA023319430184704730B50023012487
:102270008C40A3B2048C9C430484048C02FA01F5C4
:10228000ADB22C43048430BD30B5002304248C400F
:10229000A3B2048C9C430484048C02FA01F5ADB211
:1022A0002C43048430BD70B503460020002418463A
:1022B000183001258D40ACB21D8CA5431D8409B199
:1022C000082909D100EB6100056825F0700505605B
:1022D0000568154305600EE00D1FC5F34E05284443
:1022E000056825F4E045056005684FF6FF7606EAC7
:1022F00002263543056070BD21B1028842F002021A
:10230000028004E002884FF6FD731A400280704795
:1023100021B1028842F00402028004E002884FF6F4
:10232000FB731A400280704721B1828842F080021C
:10233000828004E082884FF67F731A408280704763
:1023400002884FF6F7731A40028002880A4302801F
:10235000704782884FF68F731A40828082880A43C2
:102360008280704702894FF6F8731A400281028911
:102370000A430281704702894FF67F731A40028137
:1023800002890A43028170478184704781857047C2
:10239000818670470187704781877047A0F8401099
:1023A000704702884FF6FF431A40028002880A43B2
:1023B000028070470146888E70470146088F70473B
:1023C0000146888F70470146B1F8400070470146CA
:1023D000888C70470146088D704702460020138A9A
:1023E0000B400BB1012000E000207047CA4302827D
:1023F000704730B50246002000230024158A05EA04
:102400000103958905EA010413B10CB1012000E034
:10241000002030BDCA4302827047000010B5044658
:10242000FB48844209D101218803FFF79FF800216E
:102430004FF48040FFF79AF832E0F648844209D121
:1024400001214804FFF79FF800214FF40030FFF707
:102450009AF825E0F048844209D101218804FFF769
:1024600092F800214FF48020FFF78DF818E0EB4838
:10247000844209D10121C804FFF785F800214FF4F7
:102480000020FFF780F80BE0E548844208D10121E5
:102490000805FFF778F800214FF48010FFF773F874
:1024A00010BD2DE9F04786B005460E460024A24631
:1024B00000BFA1460027B08900B100BF2F462C8A7B
:1024C0004CF6FF700440F08804432C82AC894EF631
:1024D000F3100440B08831890843718908430443EC
:1024E000AC81AC8A4FF6FF400440B0890443AC8213
:1024F00001A8FEF7B4FFC648874202D1DDF810A05C
:1025000001E0DDF80CA0A88900F4004040B10AEB1E
:10251000CA0000EB0A1031684900B0FBF1F807E08F
:102520000AEBCA0000EB0A1031688900B0FBF1F831
:102530006420B8FBF0F004012009642101FB10893C
:10254000A88900F4004040B1322000EBC900B0FB84
:10255000F1F000F00700044308E0322000EB09101E
:102560006421B0FBF1F000F00F0004432C8106B0B1
:10257000BDE8F0874FF41651016000218180C180D1
:1025800001810C21418100218181704710B50246F3
:102590000020108A4FF2FF0318400B884C88234319
:1025A0008C882343CC8823431843108210BD00211C
:1025B000018041808180C180704721B1828942F4CD
:1025C0000052828104E082894DF6FF731A408281B5
:1025D0007047F0B50346002400260025002040F691
:1025E0006A17B94200D100BF1846C1F3421401F086
:1025F0001F06012707FA06F5012C01D10C3004E073
:10260000022C01D1103000E014301AB107682F43BA
:10261000076002E00768AF430760F0BD1AB1838A24
:102620000B43838202E0838A8B4383827047028A52
:102630004FF6F0731A400282028A0A430282704700
:1026400082894FF2FF731A40828182890A43828114
:10265000704721B1828942F00202828104E08289BE
:102660004FF6FD731A4082817047028A4FF6DF737E
:102670001A400282028A0A430282704721B1028A0A
:1026800042F48042028204E0028A4BF6FF731A4051
:1026900002827047C1F30802828070470146888831
:1026A000C0F308007047818941F0010181817047C2
:1026B000028BD2B20283028B42EA0122028370476C
:1026C000028B02F47F420283028B0A43028370472B
:1026D00021B1828A42F02002828204E0828A4FF68F
:1026E000DF731A408282704721B1828A42F0100261
:1026F000828204E0828A4FF6EF731A40828270472A
:1027000021B1828A42F00802828204E0828A4FF676
:10271000F7731A408282704721B1828942F40042E5
:10272000828103E08289C2F30E028281704721B167
:10273000828A42F40062828204E0828A4FF2FF734E
:102740001A4082827047828A4FF6FB731A40828257
:10275000828A0A438282704721B1828A42F0020251
:10276000828204E0828A4FF6FD731A4082827047AB
:1027700002460020B1F5007F00D100BF13880B4056
:102780000BB1012000E00020704701F40072B2F5A7
:10279000007F00D100BFCA430280704770B5024677
:1027A000002400230025002040F66A16B14200D123
:1027B00000BFC1F3421501F01F03012606FA03F31F
:1027C000012D02D19689334006E0022D02D1168AEE
:1027D000334001E0968A33400C12012606FA04F4D5
:1027E0001688344013B10CB1012000E0002070BD08
:1027F00010B50022002340F66A14A14200D100BFA8
:102800000A1201249440A3B2DC43048010BD0000EE
:10281000003801400044004000480040004C0040A7
:10282000005000400CB50020019000906C480068FA
:1028300040F480306A49086000BF6948006800F4CD
:10284000003000900198401C0190009818B9019840
:10285000B0F5A06FF1D16248006800F4003010B10B
:102860000120009001E0002000900098012843D151
:102870005C48006840F010005A490860084600684B
:1028800020F0030008600846006840F0020008607D
:1028900053484068524948600846406848600846C6
:1028A000406840F4806048600846406820F47C102E
:1028B00048600846406840F4E810486008460068F0
:1028C00040F08070086000BF4548006800F000706C
:1028D0000028F9D04248406820F003004049486091
:1028E0000846406840F00200486000BF3C4840682D
:1028F00000F00C000828F9D10CBD10B5FFF792FFCD
:1029000010BD10B53648006840F001003449086039
:102910000846406834490840314948600846006824
:10292000324908402E4908600846006820F480209B
:1029300008600846406820F4FE0048604FF41F001D
:102940008860FFF7DAFF4FF000602949086010BD8A
:1029500010B5002100200022214B5B6803F00C0120
:1029600021B1042906D0082928D107E0214B224CA7
:10297000236027E01F4B204C236023E0184B5B684B
:1029800003F47010164B5B6803F48032022303EBF0
:10299000904022B9194B4343174C23600DE0104B74
:1029A0005B6803F4003323B1144B4343124C2360A0
:1029B00003E0104B4343104C236003E00D4B0E4CDF
:1029C000236000BF00BF064B5B68C3F303130C4CCE
:1029D000E15C094B1B68CB40074C236010BD000035
:1029E00000100240002002400000FFF8FFFFF6FE4A
:1029F00008ED00E000127A004400002000093D00CC
:102A0000480000200948804709480047FEE7FEE7E4
:102A1000FEE7FEE7FEE7FEE7FEE7FEE7FEE7FEE78E
:102A200004480549054A064B704700000329000881
:102A3000ED00000860430020604800206044002052
:102A4000604400204C480068704738B5FDF799FF96
:102A5000FEF704FC4FF48030FEF720FCFEF75DFC2F
:102A6000464908700846007801282AD11020FDF751
:102A70007DFF0220FDF766FF0020FEF794FC00209A
:102A8000FEF7A3FC4FF48060FEF796FC4FF4004085
:102A9000FEF7B6FC4FF4E0114FF48030FEF766FC11
:102AA0000120FEF76FFC00BF3920FEF71AFC00285A
:102AB000FAD00220FEF769FC00BFFEF76FFC082881
:102AC000FBD12D48FEF7CBFC2D4800684FF47A72FD
:102AD000B0FBF2F1B1F1807F00D31DE021F07F4027
:102AE000401E4FF0E022506150170F22002807DAF5
:102AF00013071D0E234B00F00F04241F1D5503E088
:102B000013071C0E204B1C5400BF00204FF0E02286
:102B100090610720106100BF01217D20FEF70CFDB0
:102B200003208DF8020010208DF803000001ADF89D
:102B3000000069461548FEF743FA4FF40050ADF81F
:102B4000000069461248FEF73BFA48208DF8030062
:102B50004FF40040ADF8000069460C48FEF730FA2B
:102B600001210846FEF7DBFC01210220FEF7D7FC1D
:102B7000FEF720FD38BD00001001002058000020A5
:102B80004400002018ED00E000E400E0000C0140EB
:102B90000014014010B5044604F20710D4F80C12DA
:102BA00008446168C1EBC101FC4A02EB810149693B
:102BB000C860D4F80C12D4F81002884210D9D4F8A6
:102BC0000C12D4F81002401A6168C1EBC10102EB8B
:102BD000810149694860D4F81002C4F80C020EE083
:102BE000D4F80C02C0F1FF006168C1EBC101EB4AEF
:102BF00002EB8101496948600020C4F80C02616859
:102C0000C1EBC101E54A02EB810148690121FDF7F1
:102C10003CFE10BD10B504466168C1EBC101DF4A3E
:102C200002EB81018869FDF77EFE6168C1EBC1019D
:102C3000DA4A02EB810148690021FDF726FED4F84B
:102C40000C12D4F81002884202D02046FFF7A2FFEF
:102C500010BD10B5D248006818B1D1480068FFF720
:102C6000D9FF10BD10B5CF48006818B1CD48006835
:102C7000FFF7D0FF10BD10B5CB48006818B1CA48A7
:102C80000068FFF7C7FF10BDC8490160704770B505
:102C900092B004460D461646C44820600020C4F891
:102CA0000802C4F80C02C4F81002C148854207D1DA
:102CB00000206060BA48046001218803FEF73CFCF4
:102CC000BC48854207D101206060B64804600121FC
:102CD0004804FEF73EFCB848854207D102206060F8
:102CE000B14804600121C804FEF733FC6068C0EB02
:102CF000C000AA4901EB8000808880B2ADF8440092
:102D000002208DF8460018208DF847006168C1EB5D
:102D1000C101A24A52F8210011A9FEF751F96068D9
:102D2000C0EBC0009D4901EB8000008980B2ADF886
:102D3000440048208DF847006168C1EBC101974A03
:102D400052F8210011A9FEF73BF96068C0EBC00002
:102D5000924901EB8000007B8DF8040001208DF882
:102D600005008DF806008DF8070001A8FDF757FC57
:102D70006168C1EBC101894A02EB81010869FDF775
:102D8000B7FC4FF480500B9000200C90281D02904F
:102D900004F1080003900020049006900890802021
:102DA000079000200990FF20059020200A9061687C
:102DB000C1EBC101794A02EB8101086902A9FDF763
:102DC00039FD6168C1EBC101744A02EB81010869F8
:102DD0000121FDF75AFD012240212846FFF71EFC84
:102DE0006168C1EBC1016D4A02EB81010869FDF721
:102DF00063FDC4F808026168C1EBC101674A02EBD8
:102E000081014869FDF774FC281D02901020049090
:102E100000200690089080200790002009900A90DA
:102E20006168C1EBC1015D4A02EB8101486902A9F9
:102E3000FDF700FD6168C1EBC101584A02EB810159
:102E4000012248690221FDF72CFD00206168C1EBD9
:102E5000C101524A02EB8101496948600122802187
:102E60002846FFF7DBFB0DA8FFF784FB0D9600203B
:102E7000ADF83800ADF83A00ADF83C000C20ADF8E4
:102E80003E000020ADF840000DA92846FFF709FBE1
:102E900001212846FFF791FB204612B070BD704714
:102EA00070B504462046FFF7FAFF054601F0A4F886
:102EB00070BD10B504466168C1EBC101374A02EB31
:102EC00081010869FDF7F8FCD4F80812884201D0A6
:102ED000012010BD0020FCE77FB504460D46606868
:102EE00000B9334E6068012800D1324E6068022874
:102EF00000D1314E6846FFF73DFB00213046FFF719
:102F00005CFB00950020ADF80400ADF80600ADF8BC
:102F100008000C20ADF80A000020ADF80C0069464E
:102F20003046FFF7BEFA01213046FFF746FB01208D
:102F300004B070BD0146D1F80822C2F1FF0301F1CF
:102F40000802D05CD1F80822521EC1F8082212B93A
:102F5000FF22C1F80822704770B504460D4604F2FE
:102F60000710D4F810124554D4F81002401CFF2169
:102F7000B0FBF1F201FB1200C4F810026068C0EB74
:102F8000C000064901EB80004069006800F00100C4
:102F900010B92046FFF7FEFD70BD00005C00002068
:102FA0009400002098000020A0000020584C000849
:102FB0000038014000440040004C004070B5054618
:102FC0000C4604E014F8011B2846FFF7C5FF2078E3
:102FD0000028F7D170BD000010B500BFFE480068A2
:102FE000FDF70BFA00F047FE0028F7D1012010BDD5
:102FF0002DE9F05F05460E4693464FF00009CA469C
:10300000002407E055F82400484502D955F82490DB
:10301000A246641C032CF5D356F82A00142812D9B2
:1030200000240EE056F82AC056F82400A9FB0070D0
:10303000014662460023384600F0CCFE45F82400E5
:10304000641C042CEED3FFF7C7FF10B90020BDE8C5
:10305000F09FE248007830B100BF00F0F6FD002894
:10306000FBD100F074FD5A462946304600F08CFD35
:103070000120ECE7F0B503460C4654F82310D8487D
:1030800050F82300814233D9D5480C3050F82350F2
:103090002946002652F823004FF0030CB0FBFCF049
:1030A000470000BF322048434FF47A7CB0FBFCF06D
:1030B0004FF00A0CB0FBFCF00644C9480C3050F845
:1030C00023000144BE42EDD354F8230088420ED9B8
:1030D00052F823004FF47A7C00FB0CF000EB8000E8
:1030E0004000A1EB050CB0FBFCF0401CF0BD00BFA4
:1030F0004FF0FF30FAE72DE9F04F89B005460E4654
:1031000091469A46129C281E01DB014600E041428E
:103110000591301E01DB014600E041420691B9F104
:10312000000001DB014600E041420791BAF10000D6
:1031300001DB014600E041420891002D01DD012044
:1031400000E000208DF80000002E01DD012000E0ED
:1031500000208DF80100B9F1000F01DD012000E031
:1031600000208DF80200BAF1000F01DD012000E01F
:1031700000208DF803008EE04FF47A7107984843E1
:1031800000EB80004000B0FBF4F0039094480C3852
:103190000399C06A814210D991480C38D0F82CC0EC
:1031A00042F210710798A0FB0170014662460023AD
:1031B000384600F00FFE441C6DE005AA01A902206C
:1031C000FFF758FFB0F1000B01DD5C4663E04FF400
:1031D0007A710698484300EB80004000B0FBF4F0A1
:1031E00002907F480C380299806A814210D97C484D
:1031F0000C38D0F828C042F210710698A0FB01707C
:10320000014662460023384600F0E4FD441C42E0DB
:1032100005AA01A90120FFF72DFFB0F1000B01DD88
:103220005C4638E042F210710598A0FB017001463F
:103230002246E317384600F0CDFD019068490C396D
:103240000198496A88420FD965480C38D0F824C0E3
:1032500042F210710598A0FB0171624600233846C6
:1032600000F0B8FD441C16E005AA01A90020FFF7F4
:1032700001FFB0F1000B01DD5C460CE042F2107181
:103280000898A0FB017001462246E317384600F07B
:10329000A1FD049002E0002C3FF76EAF00BF6A462C
:1032A00005A901A8FFF7A4FE09B0BDE8F08F2DE93C
:1032B000F0478EB004460D4616461F46DDE91689D6
:1032C0002046294601F0F0F80D903046394601F0CD
:1032D000EBF80C904348D0F83C110D98A0EB010A94
:1032E0004048D0F840110C98401A0A903D48D0F858
:1032F00044110B98401A09903A48D0F84801ABEBBA
:103300000000089037490D98C1F83C010C98C1F8AD
:1033100040010B98C1F844010846C0F848B10020AC
:103320003149DDE91C2300F067FFCDE90201DDE949
:103330001A2301F069F9CDE9040101F0E5F80790DD
:103340002A4801680798084428490860BAF1000F24
:1033500004D10A9810B9BAF1000F03D0079808B940
:10336000012007900898002801DACDF820B0204805
:103370000CC82046294601F00BF901D21C4830C088
:103380001C480CC82046294601F03CFA01D21948D5
:1033900030C019480CC83046394601F0F9F801D25E
:1033A0001548C0C015480CC83046394601F02AFA05
:1033B00001D21248C0C012480CC84046494601F02C
:1033C000E7F802D20E48C0E900890E480CC8404612
:1033D000494601F017FA17E000000020B400002071
:1033E0003001002058010020004CED40A8000020D2
:1033F000B8000020C0000020C8000020D00000203D
:10340000D8000020E000002002D25448C0E9008922
:10341000DDE91C0101F078F806900490DDE91A015D
:10342000CDE902010798009052460A9B1946504682
:10343000FFF761FE0EB0BDE8F0872DE9F04F91B0C7
:103440004FF0000A80E0464951F83A10454A1268A8
:10345000881A01F086F80022434BCDE90E0100F0F6
:10346000CBFE804689463E4901EBCA0149683F4A86
:103470001268881A01F075F800223B4BCDE90E0165
:1034800000F0BAFE04460D4622462B462046294649
:1034900001F0BAF842464B46CDE90A01404649469A
:1034A00001F0B2F8CDE90801DDE90A2300F0F0FDF2
:1034B000CDE90C0100F0BAFD8346584600F0A0FDAE
:1034C0000F9001F0BFFA06460F46254901EBCA01ED
:1034D000486801F046F8CDE90E01214951F83A005B
:1034E00001F03FF8CDE90C011D4901EBCA01486824
:1034F00001F037F8CDE90A01194951F83A0001F015
:1035000030F8CDE9080100201949CDE90467CDE97B
:103510000601DDE90E01CDE90201DDE90C01CDE98D
:10352000000108A80FC8FFF7C2FE0D4850F83A0086
:103530000C4908600A4800EBCA0040680B49086063
:103540000AF101001FFA80FA054850F83A00401CC1
:1035500000287FF478AF11B0BDE8F08FE0000020C4
:10356000B0020020F000002000005440F4000020D1
:1035700000C072400021F84A1160F84A1160F84A10
:10358000116030B1012808D002280AD0032812D1D6
:103590000CE00221F34A11600DE00121F24A1160B2
:1035A00009E04FF40061F14A116004E04FF400615A
:1035B000EE4A116000BF00BF704700B585B0002023
:1035C00017E0002100EB4002E94B03EB820251605F
:1035D000012100EB400203EB82021172002100EB9B
:1035E000400203EB8202917200EB400243F822108A
:1035F000401C0428E5DB0020D7490860D749086053
:10360000D749086002208DF8120010208DF81300B1
:103610000220ADF8100004A9D2481438FDF7D0FC00
:103620000420ADF8100004A9CE481438FDF7C8FCFA
:103630004FF48070ADF8100004A9CA481438FDF7A3
:10364000BFFC0020FFF796FF0120ADF8100004A991
:10365000C5481438FDF7B4FC4FF40070ADF8100005
:1036600004A9C2481438FDF7ABFC0220ADF81000E5
:1036700004A9BE481438FDF7A3FC0120FFF77AFF28
:103680004FF40060ADF8100004A9B8481438FDF7F5
:1036900097FC8020ADF8100004A9B648FDF790FC17
:1036A0004FF48050ADF8100004A9B348FDF788FC32
:1036B0000220FFF75FFF4FF40060ADF8100004A98F
:1036C000AA481438FDF77CFC4020ADF8100004A98E
:1036D000A948FDF775FC4FF48060ADF8100004A90F
:1036E000A2481438FDF76CFC0320FFF743FF40F2BB
:1036F0000770ADF804006420ADF808000020ADF8B4
:103700000A00ADF8060001208DF8030000208DF8B6
:1037100001004FF4E060FCF77DFF1C208DF80000F5
:1037200000208DF802006846FCF779FF0121084669
:10373000FDF70FFF01A94FF08040FEF735F800209C
:103740004FF08041888201218807FEF789FC012221
:1037500011469007FEF79FFB01218807FEF780FBCB
:103760001D208DF8000001208DF802006846FCF74E
:1037700056FF01210220FDF7ECFE01A97F48FEF76C
:1037800013F800207D491431088001217B48FEF7A1
:1037900067FC012211467948FEF77DFB012177483D
:1037A000FEF75EFB1E208DF8000002208DF802005F
:1037B0006846FCF734FF01210420FDF7CAFE01A989
:1037C0006F48FDF7F1FF00206D4914310880012199
:1037D0006B48FEF745FC012211466948FEF75BFB8A
:1037E00001216748FEF73CFB19208DF800000320FB
:1037F0008DF802006846FCF712FF0121C802FDF7B0
:103800009BFE01A95F48FDF7CFFF00205D49143101
:10381000088001215B48FEF723FC0122114659482C
:10382000FEF739FB01215748FEF71AFB05B000BD32
:1038300070B5044604EB44004D4901EB8000807AEA
:1038400000287AD034B1012C16D0022C24D0032CBD
:1038500047D134E004EB4400454901EB8000007A95
:1038600028B14FF480703F49091F086003E04FF40E
:1038700080703C49086034E004EB44003C4901EBB3
:103880008000007A20B102203849091F086002E058
:1038900002203649086024E004EB4400344901EB7F
:1038A0008000007A28B14FF480503349103108600D
:1038B00004E04FF4805030491431086011E004EB0B
:1038C00044002B4901EB8000007A28B14FF480605E
:1038D0002649091F086003E04FF48060234908600F
:1038E00000BF00BF04EB4400214901EB8000007AD7
:1038F00080BB04EB440001EB8000406858B104EB4E
:10390000440001EB80004068401E04EB4401184A6B
:1039100002EB8101486004EB4400154901EB800093
:10392000407A58B104EB440051F82000401C04EBED
:1039300044010F4A42F8210034E044E004EB440023
:103940000B4951F82000401E04EB4401084A42F89C
:10395000210027E018E00000040100200001002001
:10396000FC0000201408014014180140140C014010
:10397000D04200200010014000140140000400402B
:1039800000080040002C014004EB4400C74901EB53
:103990008000406830B9002004EB4401C34A02EBC8
:1039A0008101887204EB4400C04901EB8000007A79
:1039B00008B9012000E0002004EB4401BB4A02EBFF
:1039C00081010872C2E0BA4800680028FADDB748F1
:1039D000807A0028F6D1B548807D0028F2D1B3481E
:1039E00090F822000028EDD1B04890F82E00002871
:1039F000E8D172B6AF48006800EB800101EBC0006F
:103A0000AD4901EB8005002010E055F8201000EBD7
:103A10004002A64B03EB8202516005F13001095CC4
:103A200000EB400203EB82025172401C0428ECDBE5
:103A30009E484068D0B101209C49887295F83000BA
:103A400008B1012000E00020024604219B48FDF758
:103A500068FB0220994910310860288A8906088588
:103A6000288C81B24FF08040FEF790FC8F480069AF
:103A7000D0B101218D4881753120405D08B1012010
:103A800000E0002002464FF400718D48FDF749FB2D
:103A900001208C490860A88A8B490880A88C81B2D3
:103AA00089482838FEF772FC8048C069E0B10121DE
:103AB0007E4880F822103220405D08B9012000E0E5
:103AC0000020024680218148FDF72BFB4FF4006067
:103AD0007B4910310860288B7D490880288D81B290
:103AE0007B482838FEF752FC7048806AE0B101211B
:103AF0006E4880F82E103320405D08B9012000E0A8
:103B00000020024640217348FDF70BFB4FF4006094
:103B10006B4910310860A88B6F490880A88D81B26D
:103B20006D482838FEF732FC62480068401C614945
:103B3000086008460068082801DB002008605C482F
:103B40000068401E5A49086062B600BF70BD10B5DB
:103B500000240FE0E0B2FFF70DFD002004EB44016C
:103B6000524A02EB8101887204EB440102EB8101AD
:103B70004860641C042CEDDB0020584908604D4966
:103B800008604B49086010BD2DE9F04103460E4620
:103B90001746186838B9586828B9986818B9D868A5
:103BA00008B9BDE8F08100E000BF4148006808287E
:103BB000FADA4A48006800EB800202EBC0003E4A95
:103BC00002EB8001002027E056F82050DFF810C1FA
:103BD000654500D9654605B901250122DFF804C114
:103BE000BCFBF5F401E052006408B4F5803FFAD262
:103BF000521E01F1200C4CF8204001F1100C4CF841
:103C0000202017F8008001F1300C0CF8008053F8E8
:103C100020C041F820C0401C0428D5DB2F48006894
:103C2000401C2E4A106010460068082801DB002066
:103C3000106072B61E480068401C1D4A106062B6D3
:103C400000BFAEE71A4800687047194800680028AE
:103C500001DD01207047002109E001EB4100134A1A
:103C600002EB8000807A08B10120F3E7491C0429A7
:103C7000F3DB0020EEE70E480068082801DB012096
:103C800070470020FCE7014601EB4100074A52F86B
:103C900020007047002006E0002100EB4002034BAB
:103CA00043F82210401C0428F6DB7047D042002065
:103CB000FC000020000100203041002000080140ED
:103CC000000C014010180140280400400010014081
:103CD0002808004000140140282C01400401002065
:103CE000F0490200002A7515704700BFFEE700BFCB
:103CF000FEE700BFFEE700BFFEE770477047704772
:103D00002C480088401C2B49088008460088B0F5E4
:103D1000FA7F14DB002008802748007818B12020A3
:103D20002649086003E020202449091D0860224834
:103D3000007808B9012000E000201F4908702048E1
:103D40000088401C1E490880084600880C2801DBBA
:103D5000002008801B480088401C1A49088008463B
:103D60000088142801DB00200880704710B501216D
:103D70008807FEF74FFB0020FFF75AFD10BD10B576
:103D800001211148FEF746FB0120FFF751FD10BD50
:103D900010B501210D48FEF73DFB0220FFF748FD5D
:103DA00010BD10B501210A48FEF734FB0320FFF7D0
:103DB0003FFD10BD080100200E010020100C014045
:103DC0000A0100200C01002000040040000800400F
:103DD000002C014053EA020C00F069802DE9F04B01
:103DE0004FF00006002B1FBFB3FA83F503FA05F46A
:103DF00024FA05F65E4012BF1643B2FA82F502FAC3
:103E000005F4C5F120051EBF22FA05FC44EA0C04A6
:103E1000203556EA044C4FEA144418BF641C4FF096
:103E200000084FF00009904271EB030C39D30029D0
:103E300019BFB1FA81F701FA07F6B0FA80F700FA74
:103E400007F6C7F120071EBF20FA07FC46EA0C065A
:103E50002037B6FBF4FCA7EB0507103F07F01F0B5C
:103E6000CBF120060CFA0BFB2CFA06F644BFB34646
:103E70000026202FA4BF5E464FF0000B5BEA060C25
:103E800008BF4FF0010B19EB0B09ABFB027C48EBB1
:103E90000608C01B06FB02CC0BFB03CC71EB0C012C
:103EA000C1E70B46024641464846BDE8F08B13B5D4
:103EB0004FF000004FF00001AFF30080BDE81C4060
:103EC000704770477047704770B50446051F00F093
:103ED0002DF80068002C14BF446870BD002C18BF7A
:103EE000AC423CBF20466468F8D301680A18AA4275
:103EF00018BF456003D12A6805461144016028684F
:103F00004119A1421CBF6C6070BD61686960216885
:103F10000844286070BD10B500F00CF8006810BDB2
:103F200010B5044600F006F8046010BD0048704764
:103F300008430020004870470043002000487047B5
:103F4000004300207546FFF7F9FFAE4605006946BD
:103F5000534620F00700854618B020B5FEF760FDF7
:103F6000BDE820404FF000064FF000074FF000087A
:103F70004FF0000B21F00701AC46ACE8C009ACE8FB
:103F8000C009ACE8C009ACE8C0098D46704710B55F
:103F90000446AFF300802046BDE81040FCF7EDB8C2
:103FA00001491820ABBEFEE72600020070472DE94C
:103FB000F04105460E462C460027B04624212046F7
:103FC000FCF748F94D212046FCF744F90FB12120B8
:103FD00000E03E2001462046FCF73CF9002020731B
:103FE00041462046FCF736F994F8FE102046FCF7CF
:103FF00031F900BFBDE8F08110B5FFF765FF10BDD6
:1040000070B5054600F094FD044620F00040C0F174
:10401000FF40C00F08D025F00040C0F1FF40C00FA6
:1040200004BF0120FFF77CFF204670BD21F0004255
:10403000A2F16052B2F5801F01F0004328BFD2F117
:104040007F6C0BD95FEA001C43EAC20242EB50705E
:1040500018BF704728BF20F001007047B2F5801FDD
:10406000BCBF184670474FEA410C1CF5001F02D236
:10407000084600F058BD70B500F070FB00000089E4
:10408000FFF7F6BF4FF00040A0F58000704700003A
:1040900010B591EA030F48BF83F0004300F1F083AD
:1040A000841A71EB030C05D2121943EB0C03001BAD
:1040B00061EB0C01DFF824E14FEA1154A4EB135C2F
:1040C0001EEA430F18BF9EEA445F73D023EA0E0333
:1040D000DCF1200E21EA045143F4801332D322FA9A
:1040E0000CFE10EB0E0023FA0CFE41EB0E01CCF19E
:1040F000200E03FA0EFE10EB0E0051F10001B1F597
:10410000801FCCF1200E32D201EB045112FA0EF2D4
:10411000BDE8104058BF7047401C38BF5FEA4202FC
:1041200018BF7047002814BF20F0010041F10001C2
:104130004FEA410313F5001F38BF7047A1F1C0419A
:1041400000F05ABB012A43EB0302ACF1200CDCF176
:104150001F0E32BF4FF0000E23FA0CF310EB0300DA
:1041600041EB0451B4EB115FD0D0A1EB045101F548
:10417000801149085FEA300001EB04510ED350F181
:10418000000038BF12FA0EFE08D1BDE81040C9E7A2
:10419000401C38BF5FEA4202CAD1C3E7BDE8104005
:1041A0004FEA410313F5001F38BF7047A1F1C0412A
:1041B00000F022BB9EEA445F08D011EA5E0FBDE822
:1041C000104004BF01F0004100207047BDE81040DE
:1041D00070B500F0C3FA00BF64FBBE3E0000E0FF14
:1041E000491058BFC1F140415B1058BFC3F1404373
:1041F0008B42EFF3008070472DE9C04130B4DFF807
:10420000A0C23CEA111418BF3CEA131400F0EC8081
:1042100081EA03051CEA111444EAD57418BF1CEAAC
:10422000131500F0C780A4EB05044FF0004545EAE4
:10423000C12145EAC32341EA505143EA525304F1F4
:104240007F74994204F500344FEAC0204FEAC2223D
:1042500008BF904200F09C804FEA13650FF24016B1
:10426000765D4FEA134506FB05F7C7F1807706FB3D
:1042700007F74FEAD737A7FB03687642C8F58038BF
:10428000A7FB06CE38BFA8F1010807FB08E64FF0F0
:10429000000EA6FB028CE6FB03CEDCF1000CCEF197
:1042A000004E38BFAEF1010EA6FB0C584FF00007D0
:1042B0004FF00005E6FB0E87A1FB08C6A0FB07CE6A
:1042C00016EB0E0645F10005E1FB076515F1E04E22
:1042D0007EBFA4F580345FEA46066D4116F1800783
:1042E00045F100054FEA17274FEA066647EA0567DA
:1042F000A6F1DE46B6F1805F4FEA15251FD9384694
:1043000024F0010C05EBC471BCF1FE6F01EB0C1144
:1043100002D8F0BCBDE8008124425CBF01F5801EDC
:104320009EEAC47F02D4F0BCBDE80081244238D4A8
:10433000F0BCA1F1C041BDE8004100F05DBA4FEA18
:10434000D22242EA43524FEAD323A7FB02864FEA26
:10435000D02040EA415007FB03661EEA0E0F4FEAE9
:10436000D12105FB026658BFA6EB0056B6EB0056FE
:104370004FEA520E4EEAC37E18EB0E0E56EB530E6A
:10438000BDD518EB02085E417F1C55F10005B6E76C
:104390004FF480154FF000074FF000064FF0000873
:1043A000ADE7F0BC4FF0000001F1C04101F0004169
:1043B000BDE8008111EA0C1F0CEA131500D00CE0D7
:1043C00013EA0C1F00F025804FF00000F0BC81EADA
:1043D000030101F00041BDE80081F0BCBDE80041EF
:1043E00081EA030100F008BAF0BCBDE8004170B5F5
:1043F00000F0B4F9097EFC3E00F007B881EA030141
:104400004FF0000001F00041704781EA030100F025
:10441000F3B9F0BCBDE800414FF0000021497047FE
:10442000FFFDFBF9F7F5F4F2F0EEEDEBE9E8E6E479
:10443000E3E1E0DEDDDBDAD8D7D5D4D3D1D0CFCD00
:10444000CCCBCAC8C7C6C5C4C2C1C0BFBEBDBCBB39
:10445000BAB9B8B7B6B5B4B3B2B1B0AFAEADACAB34
:10446000AAA9A8A8A7A6A5A4A3A3A2A1A09F9F9E0E
:104470009D9C9C9B9A9999989797969595949393C0
:10448000929191908F8F8E8E8D8C8C8B8B8A898957
:1044900088888787868585848483838282818180DA
:1044A0000000FF070000F87F4FEA41034FEA535333
:1044B000A3F58063D3F11E03C8BFD3F1210C0CDD3B
:1044C0004FF0004242EAC12242EA505232FA03FC63
:1044D0008CEAE17CACEBE1707047102BC4BF00208C
:1044E000704703F5787CBCF1FF3F04D06FF00042C9
:1044F00082EA2100704770B500F030F949922480BB
:1045000000207047F2E700004FEA1153A3F58063E3
:10451000D3F11E03A8BFD3F1200C08DB4FF00042FB
:1045200042EAC12252EA505232FA03F0704709427D
:104530000BD4102BC4BF0020704703F5787CBCF16E
:10454000FF3F05D04FF0FF3070474FF0000070473D
:1045500070B500F003F900BF499224800020704735
:10456000F0E710F0004248BF4042B0FA80F310FA82
:1045700003F10AD0C3F11D0303F580634FEA4150F4
:1045800002EB035202EBD12170474FF0000070475D
:1045900051EA030C17D41CF5801F58BFBCF5801FCF
:1045A00000F10680994218BF704708BF90427047DB
:1045B00007D711F5801F58BF13F5801F19D49942F2
:1045C0007047894270471CF5801F08D5BCF5801FD5
:1045D000F7D58B4218BF704708BF824270474FF42F
:1045E000001C1CEB410F38BF1CEB430F01D28B4268
:1045F000704770B500F0B2F8922449004FF00051B6
:104600004FF08053FFF7ECBDDFF848C170B51CEAEE
:10461000111E1EBF1CEA13159EEA0C0F95EA0C0F23
:1046200000F06F8081EA030423EA4C134EEAD47E43
:1046300021EA4C1141F4801143F48013AE44A1FBF4
:10464000024CA0FB0365AEF17F7E361955EB0C05DD
:10465000A1FB034C4CF10003A0FB021C16EB0C0663
:10466000654153F10003094218BF46F0010613F4F7
:10467000007F0BD14FEA03314FEA0530340341EAA2
:10468000155140EA16506FF003020AE04FEAC321C9
:104690004FEAC520F40241EA555140EA56506FF006
:1046A000020202EB2E4201EB025585EACE710AD0DE
:1046B0005FEA440C18BF24F0004450F1000041F1BF
:1046C000000120EAD47040F2FE7C624500D270BD49
:1046D000A84214BF4FF080444FF04044002E08BF62
:1046E0000024BEF1806FA8BFA1F1C041BDE87040B9
:1046F00080F282804FF0000001F1C04101F00041E2
:1047000070479EEA0C0F0CEA131518BF95EA0C0FC0
:1047100006D04FF0000081EA030E0EF0004170BD9C
:1047200000F01CF88900013E00F007B800F009B85D
:104730004FEA430C5FEA5C5C08D081EA030100F0B9
:104740005BB84FEA410C5FEA5C5CF6D14FF00000C9
:10475000014970470000FF070000F87F0EF1020ECC
:104760002EF0030E5EF8046B364205D4012A43EBAB
:10477000030515F5001F12D8012841EB010C1CF5AB
:10478000001F0CD80ED14FEAD17C15F5001F0CEBA1
:104790004C0C0CF1020C08BF4CEBD37C04E04FF046
:1047A000080C01E04FEAD37C0CEB4C0526FA05F629
:1047B00006F00706B6F1040C06D20EEB860CBDE837
:1047C00070404CF0010C6047DFE80CF0090B02026E
:1047D0004FF000414FF00000A1F5002170BD1946D7
:1047E0001046012851EB010418BFD4F5001484BF12
:1047F000002001F0004170BD0808A0F500114FEA4B
:104800003101704753EA010C17D41CF5801F58BFC3
:10481000BCF5801F00F106808B4218BF704708BFAF
:104820008242704707D713F5801F58BF11F5801FCC
:1048300019D48B4270479B4270471CF5801F08D5E6
:10484000BCF5801FF7D5994218BF704708BF90424A
:1048500070474FF4001C1CEB430F38BF1CEB410F9B
:1048600001D2994270470FB40CBC03BCFFF7C1BE24
:1048700010B591EA030F48BF83F000433FF510AC39
:10488000841A71EB030C07D212198CF0004C43EB25
:104890000C03001B61EB0C01DFF8A4E14FEA11549B
:1048A000A4EB135C1EEA430F18BF9EEA445F00F0BE
:1048B000B08023EA6E03524221EA0451C3EB6E0337
:1048C00038BF5B1EDCF1200E25D322FA0CFE10EB64
:1048D0000E0043FA0CFE41EB0E01CCF1200E03FA60
:1048E0000EFE10EB0E0051F10001CCF1200E29D488
:1048F00012FA0EF201EB0451BDE8104058BF7047A8
:10490000401C1CBFB2F1004F704700280CBF491C6F
:1049100020F00100704712EB020E43EB030218BFB8
:104920004FF0010E4EEA4202ACF1200CDCF11E0EFB
:1049300054D943FA0CFE10EB0E0051F1FF31CCF1CB
:104940001E0ED5D50EF1010E12FA0EFE404141EBBE
:10495000010101EB445C5FEA5C5C10D910EBDE7096
:1049600001EB045138BFBEF1004FBDE8104018BF45
:10497000704700280CBF491C20F00100704730D25E
:104980004FEAD42C11F5001124F400641BD0B1FAC5
:1049900081F20B3AA41AA41ED2F12003914030FAFE
:1049A00003F31943904001EBCC71002C01EB04514F
:1049B000BDE81040A8BF704701F1C0414FF00000B2
:1049C00001F000417047B0FA80F310FA03F100D112
:1049D00010BDE41A173C4805C90AE4E701EB04518D
:1049E00010BD491001EB0451BDE810404FEA300002
:1049F00002E04FF0000170474A0008BF0042F8D0C3
:104A0000B2F5001F28BF704701F000414FF00000D1
:104A100070479EEA445F07D011EA5E0FBDE8104080
:104A200004BF002100207047BDE8104070B5FFF7BB
:104A300095FE00BF40DFF63E83F000411046704710
:104A40000000E0FF43004FEAD30C4FEA3C0C434028
:104A50001FBF40070CF1605113F0FE4F70471CF070
:104A6000006F03D100200CF0004170470CF00043B0
:104A700043EA507010B540EACC0000F00EF800BFD9
:104A8000000000924FEA0001FFF7B6BE4FF0004170
:104A90004FF00000A1F5002170470EF1020E2EF03C
:104AA000030E5EF8044B244204D44FEA4102B2F1F3
:104AB0007F4F11D84FEA4003B3F17F4F0CD80ED18E
:104AC0004FEAD07CB2F17F4F0CEB4C0C0CF1020C96
:104AD00008BF4CEBD17C04E04FF0080C01E04FEA3A
:104AE000D17C0CEB4C0324FA03F404F00704B4F17A
:104AF000040C06D20EEB840CBDE810404CF0010C07
:104B00006047DFE80CF0070802024FF00040A0F514
:104B1000800010BD0846420018BFD2F1807288BFE5
:104B200000F0004010BDFF2141EAD050C0057047A1
:104B30004FEAD051002988BFD1F1FF0240F27580C1
:104B400001F17D014FEA002070B5490840F00040B6
:104B500038BF40080EA2430E040CD25C02FB02F3E5
:104B600004FB03F3C3F14043A3FB0254ED0D45EAFC
:104B7000442202FB02F3A0FB03546D42C4F1404403
:104B800038BF641EA2FB05350023E2FB0453EA0B89
:104B900042EA4342A0FB023212F14004A2F1210397
:104BA000E40903F07F031F2B32D904EBC15070BD21
:104BB000FEFAF7F3F0ECE9E6E4E1DEDCD9D7D4D293
:104BC000D0CECCCAC8C6C4C2C1BFBDBCBAB9B7B6C4
:104BD000B4B3B2B0AFAEACABAAA9A8A7A6A4A3A227
:104BE000A1A09F9E9E9D9C9B9A999897979695941D
:104BF0009393929190908F8E8E8D8C8C8B8A8A89D4
:104C00008988878786868584848383828281818060
:104C100004FB04F6B6EB004603D5E64248BF641C2D
:104C2000C3E7A64258BF641CBFE711F0FF0F02D1D3
:104C300000F00040704710B5FFF72FFF7FDBFFBE8D
:104C400000000000000000004102000843020008CC
:104C500000000000000000009F2E0008A12E0008A8
:104C6000804C00080000002010010000280100080E
:104C7000904D00081001002050470000440100083A
:104C800000000000401F0000803E0000401F0000A8
:104C9000401F00000101000028230000282300001D
:104CA0000000000000000000000000000000000004
:104CB00000000102030401020304060708090204BC
:104CC0000608000000A24A040000000000000000E6
:104CD0000102030406070809000000000008014063
:104CE00000020000000400000E0000005800024016
:104CF00044000240002000000008014004000000C1
:104D000008000000110000006C000240800002401A
:104D10000000000200000000000000000000000091
:104D20000000000000000000000000000000000083
:104D30000000000000000000000000000000000073
:104D40000000000000000000000000000000000063
:104D50000000000000000000000000000000000053
:104D60000000000000000000B00200200000000071
:104D70000000000000000000000000000000000033
:104D80000000000000000000000000000000000023
:04000005080000ED02
:00000001FF
